:100000000C9462000C948A000C948A000C948A0070
:100010000C948A000C948A000C948A000C948A0038
:100020000C948A000C948A000C948A000C94690445
:100030000C948A000C948A000C948A000C948A0018
:100040000C94C7030C948A000C9437040C9411048C
:100050000C948A000C948A000C948A000C948A00F8
:100060000C948A000C948A000000000023002600F3
:10007000290000000000240027002A0000000000E2
:10008000250028002B0004040404040404040202D4
:100090000202020203030303030301020408102007
:1000A0004080010204081020010204081020000012
:1000B0000008000201000003040700000000000027
:1000C0000000250511241FBECFEFD8E0DEBFCDBF55
:1000D00011E0A0E0B1E0E0EEF4E102C005900D9285
:1000E000AC31B107D9F721E0ACE1B1E001C01D921C
:1000F000AF3EB207E1F710E0C2E6D0E004C02197BE
:10010000FE010E947608C136D107C9F70E94820518
:100110000C946E0A0C940000E091E801EC3088F534
:100120004091E90128E830E0241B310947FD33956F
:10013000220F331F220F331F8217930784F0409141
:10014000EA0128E532E0241B310947FD3395220FEF
:10015000331F220F331F821793070CF49C01225088
:100160003109220F331F4FB7F8948E2F90E0FC0116
:10017000EE0FFF1FE80FF91FED53FE4F328321836F
:100180004FBF0895833081F028F4813099F0823098
:10019000A9F008958730A9F08830C9F08430B1F40F
:1001A000809180008F7D03C0809180008F77809345
:1001B0008000089584B58F7784BD089584B58F7DC0
:1001C000FBCF8091B0008F778093B000089580912D
:1001D000B0008F7DF9CF1F93CF93DF93282F30E0AE
:1001E000F901E255FF4F8491F901E656FF4FD49192
:1001F000F901EA57FF4FC491CC23A9F0162F8111C2
:100200000E94C200EC2FF0E0EE0FFF1FE458FF4FFA
:10021000A591B4918FB7F894EC91111108C0D095C5
:10022000DE23DC938FBFDF91CF911F910895DE2BEA
:10023000F8CFE3EBF0E0E491E33019F140F4E13082
:10024000B1F0E230C9F060E085E00C94EB00E730FB
:1002500011F1E83041F1E430B1F7209180002062E3
:100260002093800090938B0080938A00089594B52A
:10027000906894BD87BD089594B5906294BD88BD83
:100280000895209180002068209380009093890039
:100290008093880008959091B00090689093B0008A
:1002A0008093B30008959091B00090629093B00055
:1002B0008093B4000895CF93DF9390E0FC01E6565D
:1002C000FF4F24918A579F4FFC0184918823D1F0DE
:1002D00090E0880F991FFC01EE58FF4FA591B49153
:1002E000FC01E458FF4FC591D49161110EC09FB736
:1002F000F8948C91E22FE0958E238C932881E22351
:10030000E8839FBFDF91CF9108958FB7F894EC9168
:10031000E22BEC938FBFF6CF3FB7F89480911E018C
:1003200090911F01A0912001B091210126B5A89BB9
:1003300005C02F3F19F00196A11DB11D3FBFBA2F77
:10034000A92F982F8827BC01CD01620F711D811D37
:10035000911D42E0660F771F881F991F4A95D1F7BC
:1003600008958F929F92AF92BF92CF92DF92EF92B9
:10037000FF924B015C010E948C016B017C010E9489
:100380008C016C197D098E099F09683E73408105B7
:100390009105A8F321E0821A9108A108B10888EE1E
:1003A000C80E83E0D81EE11CF11C81149104A10445
:1003B000B10429F7FF90EF90DF90CF90BF90AF90FE
:1003C0009F908F900895AF92BF92CF92DF92EF925D
:1003D000FF920F931F93CF93DF936C017B018B01EF
:1003E000040F151FEB015E01AE18BF08C017D1073F
:1003F00059F06991D601ED91FC910190F081E02DC9
:10040000C6010995892B79F7C501DF91CF911F911D
:100410000F91FF90EF90DF90CF90BF90AF90089535
:10042000FC01538D448D252F30E0842F90E0821BFA
:10043000930B541710F0CF96089501970895FC017F
:10044000918D828D981761F0A28DAE0FBF2FB11DD7
:100450005D968C91928D9F5F9F73928F90E008952F
:100460008FEF9FEF08952FB7F8948091220190911C
:100470002301A0912401B09125012FBF80932E016B
:1004800090932F01A0933001B093310186E291E067
:100490000E941F0297FF26C02FB7F8948091220177
:1004A00090912301A0912401B09125012FBF40918B
:1004B0002E0150912F016091300170913101841B08
:1004C000950BA60BB70B40912A0150912B0160911F
:1004D0002C0170912D0184179507A607B707B0F27C
:1004E0008FEF9FEF0895FC01918D828D981731F069
:1004F000828DE80FF11D858D90E008958FEF9FEFBD
:100500000895FC01918D228D892F90E0805C9F4F92
:10051000821B91098F739927089586E291E00E94CA
:10052000810221E0892B09F420E0822F089580E0E8
:1005300090E0892B29F00E948D0281110C9400001B
:100540000895FC01A48DA80FB92FB11DA35ABF4F68
:100550002C91848D90E001968F739927848FA689C2
:10056000B7892C93A089B1898C91837080648C9316
:10057000938D848D981306C00288F389E02D8081C5
:100580008F7D80830895EF92FF920F931F93CF93F7
:10059000DF93EC0181E0888F9B8D8C8D98131AC0BE
:1005A000E889F989808185FF15C09FB7F894EE89A5
:1005B000FF896083E889F989808183708064808302
:1005C0009FBF81E090E0DF91CF911F910F91FF904D
:1005D000EF900895F62E0B8D10E00F5F1F4F0F73F5
:1005E0001127E02E8C8D8E110CC00FB607FCFACFB0
:1005F000E889F989808185FFF5CFCE010E94A102AB
:10060000F1CFEB8DEC0FFD2FF11DE35AFF4FF08280
:100610009FB7F8940B8FEA89FB8980818062CFCFE6
:10062000CF93DF93EC01888D8823B9F0AA89BB8929
:10063000E889F9898C9185FD03C0808186FD0DC014
:100640000FB607FCF7CF8C9185FFF2CF808185FF35
:10065000EDCFCE010E94A102E9CFDF91CF910895A5
:100660008F929F92AF92BF920F931F93CF93DF937E
:10067000CDB7DEB7A1970FB6F894DEBF0FBECDBFE2
:1006800019A2423008F44AE08E010F5D1F4F842EFC
:10069000912CB12CA12CA50194010E943908E62FC0
:1006A000B901CA01EA3044F5E05DD801EE938D014D
:1006B000232B242B252B79F790E080E0109769F00D
:1006C000FD0101900020E9F73197AF014A1B5B0B58
:1006D000BD0186E291E00E94E301A1960FB6F89475
:1006E000DEBF0FBECDBFDF91CF911F910F91BF90A5
:1006F000AF909F908F900895E95CD7CFCF92DF9213
:10070000EF92FF92CF93DF936B017C016DE286E263
:1007100091E00E94C302EC0166277727CB016C1998
:100720007D098E099F094AE00E9430038C0F9D1FAE
:10073000DF91CF91FF90EF90DF90CF9008950F93CE
:100740001F93CF93DF93EC0188819981009759F033
:100750002A813B812617370730F081E0DF91CF9166
:100760001F910F9108958B016F5F7F4F0E94A10928
:10077000009759F0998388831B830A832C813D81DC
:10078000232B59F7FC011082E8CF80E0E7CF1F92BE
:100790000F920FB60F9211242F933F938F939F9335
:1007A000AF93BF938091220190912301A0912401E6
:1007B000B091250130911D0123E0230F2D3758F50D
:1007C0000196A11DB11D20931D01809322019093DC
:1007D0002301A0932401B093250180911E019091E3
:1007E0001F01A0912001B09121010196A11DB11D11
:1007F00080931E0190931F01A0932001B0932101CB
:10080000BF91AF919F918F913F912F910F900FBE0C
:100810000F901F90189526E8230F0296A11DB11D79
:10082000D2CF1F920F920FB60F9211242F933F93A6
:100830004F935F936F937F938F939F93AF93BF93E8
:10084000EF93FF9386E291E00E94A102FF91EF9166
:10085000BF91AF919F918F917F916F915F914F91D8
:100860003F912F910F900FBE0F901F9018951F92E0
:100870000F920FB60F9211242F938F939F93EF93A4
:10088000FF93E0913601F09137018081E0913C01C6
:10089000F0913D0182FD1BC0908180913F018F5FEF
:1008A0008F7320914001821741F0E0913F01F0E009
:1008B000EA5DFE4F958F80933F01FF91EF919F91ED
:1008C0008F912F910F900FBE0F901F9018958081E0
:1008D000F4CF1F920F920FB60F9211242F933F93D4
:1008E0004F935F936F937F938F939F93AF93BF9338
:1008F000CF93DF93EF93FF9380911C01C091E701A9
:10090000D0E087FF24C0109285001092840080916F
:100910001C018F5F80931C0180911C01082E000C2C
:10092000990B8C179D0724F480911C018C30C4F125
:100930008091840090918500049680349C4908F44D
:100940007AC08091840090918500049676C0809151
:100950001C01082E000C990B8C179D07C4F6E09122
:100960001C018E2FEE0F990BFC01EE0FFF1FE80FFD
:10097000F91FED53FE4F808186FFC9CFE0911C0126
:100980008E2FEE0F990BFC01EE0FFF1FE80FF91FE2
:10099000ED53FE4F808160E08F730E94EB00B7CF74
:1009A0002091840030918500E0911C018E2FEE0F84
:1009B000990BFC01EE0FFF1FE80FF91FED53FE4FDF
:1009C00081819281820F931F909389008093880088
:1009D000E0911C018E2FEE0F990BFC01EE0FFF1F13
:1009E000E80FF91FED53FE4F808186FF11C0E091A3
:1009F0001C018E2FEE0F990BFC01EE0FFF1FE80F6D
:100A0000F91FED53FE4F808161E08F730E94EB0070
:100A1000FF91EF91DF91CF91BF91AF919F918F9116
:100A20007F916F915F914F913F912F910F900FBEEA
:100A30000F901F90189580E49CE990938900809313
:100A400088008FEF80931C01E3CF10922901109250
:100A5000280188EE93E0A0E0B0E080932A01909313
:100A60002B01A0932C01B0932D018AE091E090938B
:100A700027018093260185EC90E0909333018093C9
:100A8000320184EC90E0909335018093340180EC46
:100A900090E0909337018093360181EC90E0909341
:100AA00039018093380182EC90E090933B01809370
:100AB0003A0186EC90E090933D0180933C011092C6
:100AC0003F01109240011092410110924201809129
:100AD000E7018C3098F491E0980F9093E7018093B0
:100AE000E80190E0FC01EE0FFF1FE80FF91FED5346
:100AF000FE4F88EB9BE09283818308958FEF809374
:100B0000E8010895CF93DF93CDB7DEB728970FB6EE
:100B1000F894DEBF0FBECDBF789484B5826084BDEB
:100B200084B5816084BD85B5826085BD85B58160F1
:100B300085BD80916E00816080936E00109281006F
:100B4000809181008260809381008091810081602A
:100B500080938100809180008160809380008091EB
:100B6000B10084608093B1008091B0008160809377
:100B7000B00080917A00846080937A0080917A003E
:100B8000826080937A0080917A00816080937A00FD
:100B900080917A00806880937A001092C10061E0B1
:100BA00083E00E945B0161E082E00E945B0161E002
:100BB00085E00E945B018091E8018C3008F051C013
:100BC00061E084E00E945B018091E801282F30E021
:100BD000F901EE0FFF1FE20FF31FED53FE4F90815F
:100BE000907C946090831092E9011092EA012CE0CD
:100BF000622F0E946A08829FB001112430E020E039
:100C0000AB01420F531FFA01EE0FFF1FE40FF51F58
:100C1000ED53FE4F908196FD16C02F5F3F4F2C3055
:100C2000310571F781110FC01092800082E080932E
:100C300081001092850010928400B19A80916F001B
:100C4000826080936F00E091E8018E2F90E0FC01BC
:100C5000EE0FFF1FE80FF91FED53FE4F80818064F8
:100C6000808360E08DE00E945B01E0913601F091AD
:100C7000370182E08083E0913201F09133011082EC
:100C8000E0913401F09135018FEC808310923E01A8
:100C9000E0913A01F0913B0186E08083E0913801D8
:100CA000F0913901808180618083E0913801F09179
:100CB0003901808188608083E0913801F0913901A9
:100CC000808180688083E0913801F09139018081D2
:100CD0008F7D808378E8272E312CE8E58E2EE2E0A8
:100CE0009E2EF4EB4F2E512C612C712C60E0A62E21
:100CF00060E0B62EEBEBF0E08491E7EAF0E00491DF
:100D0000E3E9F0E01491112389F181110E94C200FE
:100D1000E12FF0E0EE0FFF1FE859FF4FA591B491CE
:100D20008C91082319F161E085E00E945B0184E663
:100D300090E00E9419014AE061E070E080E090E0FC
:100D40000E94300342E050E068E171E086E291E009
:100D50000E94E301A114B10409F4CCCF0E948D02DA
:100D6000882309F4C3CF0E940000C0CF61E085E072
:100D70000E945B0160E085E00E94EB0068EE73E09A
:100D800080E090E00E94B10102E310E061E083E0C6
:100D90000E94EB008BEA96E30197F1F760E083E0B5
:100DA0000E94EB008BEA96E30197F1F701501109DD
:100DB00069F76CED75E080E090E00E94B1014AE0D7
:100DC00060E070E0CB010E94300386E291E00E9477
:100DD0008102892BD1F31A8219821C821B821E8206
:100DE0001D8270E060E0CE0101960E949F03298180
:100DF0003A8181112BC02115310519F0C9010E94DA
:100E000018091A8219821E821D821C821B820E946E
:100E1000330297FD23C08F8318860D811E810F5FDB
:100E20001F4FB801CE0101960E949F03882379F3DA
:100E300029813A818D819E81BE01695F7F4F820F3A
:100E4000931F0E94670A1E830D83E1CF1E821D82BD
:100E50006AE171E0C9010E94670AD9CFE980FA808E
:100E600060E070E0CB01E114F10419F0C7010E94C9
:100E70009C078B01E114F10419F0C7010E941809C5
:100E8000B801012E000C880B990B97FF51C00E94EE
:100E90007E038091E9019101281B310987FD33957B
:100EA000C901880F991F880F991F6C01990FEE08CF
:100EB000FF088091EA019401281B310987FD3395D1
:100EC000220F331F220F331F032E000C440B550B30
:100ED0002C193D094E095F09ADE2B0E0063011055D
:100EE00011F0AAE5B0E00E94F707A30192010E9469
:100EF000D807DA01C9018C0D9D1DAE1DBF1D0E94D2
:100F00008C0061E085E00E945B0188E790E00E9430
:100F1000190162E870E080E090E00E94B10161E0B8
:100F200085E00E945B0160E085E00E94EB0012CF4B
:100F30004AE00E943003ADCF1F93FC019927882718
:100F4000BC01E89411911032E9F3193010F01E3011
:100F5000C8F31B3251F01D3249F4689406C00E9458
:100F6000C307610F711D811D911D119110531A301E
:100F7000B0F33EF490958095709561957F4F8F4FBB
:100F80009F4F1F910895592F482F372F262F660FF7
:100F9000771F881F991F660F771F881F991F620F81
:100FA000731F841F951F660F771F881F991F089551
:100FB000052E97FB1EF400940E94EF0757FD07D003
:100FC0000E94390807FC03D04EF40C94EF075095AB
:100FD0004095309521953F4F4F4F5F4F0895909525
:100FE0008095709561957F4F8F4F9F4F08950E9418
:100FF0005B08A59F900DB49F900DA49F800D911D3F
:10100000112408952F923F924F925F926F927F9298
:101010008F929F92AF92BF92CF92DF92EF92FF9208
:101020000F931F93CF93DF93CDB7DEB7CA1BDB0BB4
:101030000FB6F894DEBF0FBECDBF09942A88398859
:1010400048885F846E847D848C849B84AA84B98460
:10105000C884DF80EE80FD800C811B81AA81B9816C
:10106000CE0FD11D0FB6F894DEBF0FBECDBFED0180
:101070000895A1E21A2EAA1BBB1BFD010DC0AA1FD9
:10108000BB1FEE1FFF1FA217B307E407F50720F0F1
:10109000A21BB30BE40BF50B661F771F881F991F6C
:1010A0001A9469F760957095809590959B01AC01B5
:1010B000BD01CF010895A29FB001B39FC001A39FBE
:1010C000700D811D1124911DB29F700D811D112481
:1010D000911D0895991B79E004C0991F961708F097
:1010E000961B881F7A95C9F780950895EE0FFF1F0C
:1010F0000590F491E02D09940F931F93CF93DF9304
:101100008230910510F482E090E0E091ED01F091E1
:10111000EE0130E020E0B0E0A0E0309799F4211536
:10112000310509F44AC0281B390B24303105D8F5A4
:101130008A819B816115710589F1FB01938382830B
:10114000FE0111C040815181028113814817590766
:10115000E0F04817590799F4109761F012960C9334
:10116000129713961C933296CF01DF91CF911F9166
:101170000F9108950093ED011093EE01F4CF211526
:10118000310551F04217530738F0A901DB019A01EC
:10119000BD01DF01F801C1CFEF01F9CF9093EE015E
:1011A0008093ED01CDCFFE01E20FF31F8193919368
:1011B0002250310939832883D7CF2091EB01309118
:1011C000EC01232B41F42091020130910301309373
:1011D000EC012093EB0120910001309101012115D8
:1011E000310541F42DB73EB74091040150910501FE
:1011F000241B350BE091EB01F091EC01E217F307B2
:10120000A0F42E1B3F0B2817390778F0AC014E5F76
:101210005F4F2417350748F04E0F5F1F5093EC01C6
:101220004093EB01819391939FCFF0E0E0E09CCF5E
:10123000CF93DF930097E9F0FC013297138212827B
:10124000A091ED01B091EE01ED0130E020E01097AA
:10125000A1F420813181820F931F2091EB01309105
:10126000EC012817390709F061C0F093EC01E09315
:10127000EB01DF91CF910895EA01CE17DF07E8F582
:101280004A815B819E0141155105B1F7E901FB835C
:10129000EA8349915991C40FD51FEC17FD0761F4FA
:1012A000808191810296840F951FE901998388833B
:1012B000828193819B838A83F0E0E0E012968D9196
:1012C0009C9113970097B9F52D913C911197CD0101
:1012D0000296820F931F2091EB013091EC012817A9
:1012E000390739F6309751F51092EE011092ED0161
:1012F000B093EC01A093EB01BCCFD383C2834081B8
:101300005181840F951FC817D90761F44E5F5F4F55
:1013100088819981480F591F518340838A819B811D
:10132000938382832115310509F0B0CFF093EE014C
:10133000E093ED019ECFFD01DC01C0CF138212824C
:10134000D7CFB0E0A0E0E7EAF9E00C9404088C0104
:10135000009751F4CB010E947C088C01C801CDB7E5
:10136000DEB7E0E10C942008FC01E60FF71F9C01BA
:1013700022503109E217F30708F49DC0D901CD913D
:10138000DC911197C617D70798F0C530D10530F317
:10139000CE0104978617970708F3C61BD70B229731
:1013A000C193D1936D937C93CF010E941809D6CF3E
:1013B0005B01AC1ABD0A4C018C0E9D1EA091ED0183
:1013C000B091EE01512C412CF12CE12C109731F50C
:1013D0008091EB019091EC018815990509F05CC0B2
:1013E0004616570608F058C08091000190910101FF
:1013F000009741F48DB79EB74091040150910501CB
:10140000841B950BE817F90708F055C0F093EC0121
:10141000E093EB01F90171836083A0CF8D919C91E2
:10142000119712966C90129713967C901397A815AB
:10143000B90559F56C0142E0C40ED11CCA14DB0495
:1014400020F1AC014A195B09DA011296159780F078
:101450006282738251834083D9016D937C93E1143E
:10146000F10471F0D7011396FC93EE93129776CFA7
:1014700022968C0F9D1FF90191838083F301EFCF9A
:10148000F093EE01E093ED0169CF4816590608F498
:101490002C017D01D3019ACFCB010E947C087C01F5
:1014A000009749F0AE01B8010E945E0AC8010E948F
:1014B0001809870153CF10E000E050CFFB01DC0199
:1014C00002C001900D9241505040D8F70895FB01A1
:1014D000DC0101900D920020E1F70895F894FFCF10
:1014E0000000EF01800000000000C302E3011002D1
:0C14F000100381021F0273020D0A0000AD
:00000001FF
